00                                                   1100300559000137SINTRAMMASJ                   SINTRAMMASJ         PEDRO ALVARES CABRAL                              JARDIM ELDORADO     88133420PALHOCA             SC480032468208ATENDIMENTO@SINTRAMMASJ.COM.BR                              2022071351        1                100300559000137                  *
10100300559000137000000000000000000000000000000000000CHACARA BERTOLINI COM DE HORTIFRUTI LTDAPEDRO ALVARES CABRAL                              JARDIM ELDORADO     88133420PALHOCA             SC48003246820 N5212500P30015150115         000000000000000000000000000000000000000000000000000000000000                000000000000000000000000000000000000000000000    *
20100300559000137111588603000172000000000000000000000CHACARA BERTOLINI COM DE HORTIFRUTI LTDAPEDRO ALVARES CABRAL                              JARDIM ELDORADO     88133420PALHOCA             SC2100000000000000000000000000000000000000000000000000000000000000000000000000000000000000000000000000000000000000000000000000                                          *
30100300559000137111588603000172638101297902402202210CRISTIAN DE LARA GLANER                                               98115598050            000000001988111000000327129       211          000032645        0000000000000000000211          0000000000000000000                                                                                                  *
90999999999999999999999999999999999999999999999999999                                                                                                                                                                                                                                                                                                                  *