00                                                   1157322992000190LOURIVALDO MANOEL PEREIRA     APARECIDO JANUARIO  RUA RIO GRANDE                                    JARDIM BRASIL       17800000ADAMANTINA          SP180997011127ESCRITORIOA.ADAMANTINA@GMAIL.COM                            2022071351         1               157322992000190                  *
10157322992000190000000000000000000000000000000000000COOPERATIVA AGRICOLA MISTA DE ADAMANTINARUA RIO GRANDE                                    JARDIM BRASIL       17800000ADAMANTINA          SP018521241400N4692300P30007440115         000000000000000000000000000000000000000000000000000000000000                000000000000000000000000000000000000000000000    *
20157322992000190143001981000102000000000000000000000COOPERATIVA AGRICOLA MISTA DE ADAMANTINARUA RIO GRANDE                                    JARDIM BRASIL       17800000ADAMANTINA          SP2100000000000000000000000000000000000000000000000000000000000000000000000000000000000000000000000000000000000000000000000000                                          *
3015732299200019014300198100010212454829365        02ROBERTO PEREIRA PALOPOLIS                                             00000000047000711700153        2508197307832000000000001293000000000000834    000000000009937000000000000000000000000000834000000000000000                                                                                                  *
3015732299200019014300198100010220712696142        02MARCELO VIEIRA DASILVA                                                00000000048000184700216        1911198007832000000000001293000000000000834    000000000009937000000000000000000000000000834000000000000000                                                                                                  *
90999999999999999999999999999999999999999999999999999                                                                                                                                                                                                                                                                                                                  *