00                                                   1134350915000149MOBE CARGA E DESCARGA LTDA    JOAO LUIZ BEAL      RUA PEDRO                                         JARDIM ELDORADO     88133420PALHOCA             SC67984480740 RHWEB.TI@GMAIL.COM                                          2022031351         1               134350915000149                  *
10134350915000149000000000000000000000000000000000000CARGILL                                 RUA PEDRO                                         JARDIM ELDORADO     88133420PALHOCA             SC96981373514 N9420100P30015150115         000000000000000000000000000000000000000000000000000000000000                000000000000000000000000000000000000000000000    *
20134350915000149124926516000120000000000000000000000CARGILL                                 RUA PEDRO                                         JARDIM ELDORADO     88133420PALHOCA             SC2100000000000000000000000000000000000000000000000000000000000000000000000000000000000000000000000000000000000000000000000000                                          *
3013435091500014912492651600012005241742820        02MIRELLA ELZA DRUMOND                                                  0000000000111111113            081220020102000000000078790000000000591    000000000059100000000070910000000000044                                                                                                                           *
90999999999999999999999999999999999999999999999999999                                                                                                                                                                                                                                                                                                                  *