00                                                   1100300559000137SINTRAMMASJ                   SINTRAMMASJ         PEDRO ALVARES CABRAL                              JARDIM ELDORADO     88133420PALHOCA             SC480032468208ATENDIMENTO@SINTRAMMASJ.COM.BR                              2022071351        1                100300559000137                  *
10100300559000137000000000000000000000000000000000000CHACARA BERTOLINI COM DE HORTIFRUTI LTDAPEDRO ALVARES CABRAL                              JARDIM ELDORADO     88133420PALHOCA             SC48003246820 N5212500P30015150115         000000000000000000000000000000000000000000000000000000000000                000000000000000000000000000000000000000000000    *
20100300559000137111588603000172000000000000000000000CHACARA BERTOLINI COM DE HORTIFRUTI LTDAPEDRO ALVARES CABRAL                              JARDIM ELDORADO     88133420PALHOCA             SC2100000000000000000000000000000000000000000000000000000000000000000000000000000000000000000000000000000000000000000000000000                                          *
30100300559000137111588603000172125031331441602202201ROSENILSON HORA DE ALMEIDA                                            28040834899            00000000197805200000014223        9174         000011151        00000000000000000009174         0000000000000000000                                                                                                  *
30100300559000137111588603000172638101297902402202210CRISTIAN DE LARA GLANER                                               98115598050            000000001988111000000327129       211          000032645        0000000000000000000211          0000000000000000000                                                                                                  *
30100300559000137111588603000172097577544202503202210JOSUE REIS DA SILVA                                                   14125002060            00000000199010150000071115        4587         00005334         00000000000000000004587         0000000000000000000                                                                                                  *
30100300559000137111588603000172162590977600404202201JEFERSON DA SILVA GONCALVES                                           08968401900            00000000199412310000056892        367          00004267         0000000000000000000367          0000000000000000000                                                                                                  *
30100300559000137111588603000172212055732401502202210JULIO CESAR DE LIMA                                                   11238209100            00000000196704090000029869        1927         0000224          00000000000000000001927         0000000000000000000                                                                                                  *
90999999999999999999999999999999999999999999999999999                                                                                                                                                                                                                                                                                                                  *