00                                                   1100471493000148SINDICATO DOS TRABALHADORES NAFREDERICO JENSEN                                                      ITOUPAVAZINHA       89066300BLUMENAU            SC4788347781  cidralcontabil@brturbo.com.br                               202204135         1                100471493000148                  *
10100471493000148000000000000000000000000000000000000RIBEIRO SERVICOS DE TREINAMENTO LTDA    APARECIDO SAVEGNAGO                               JARDIM SAINT GERARD 14022032RIBEIRAO PRETO      SP(16) 39165573N8599604P0 10                000000000000000000000000000000000000000000000000000000000000               000000000000000000000000000000000000000000000    *
20100471493000148106258118000109000000000000000000000RIBEIRO SERVICOS DE TREINAMENTO LTDA    APARECIDO SAVEGNAGO                               JARDIM SAINT GERARD 14022032RIBEIRAO PRETO      SP    00000000000000000000000000000000000000000000000000000000000000000000000000000000000000000000000000000000                                                          *
30100471493000148106258118000109041055747431005202210AYLA MELISSA CECILIA CAVALCANTI                                       1          123    2            198303180101 22951        148          00001721         0000000000000000000148          0000000000000000000                                                                                                  *
30100471493000148106258118000109706906462251005202210NINA GABRIELA LAVINIA BARBOSA                                         4          573    2            195001170303 21206        1368         0000159          00000000000000000001368         0000000000000000000                                                                                                  *
30100471493000148106258118000109174172392591005202210LUZIA ANA REGINA DUARTE                                               5          5555   566          200302010303 19848        128          00001489         0000000000000000000128          0000000000000000000                                                                                                  *
30100471493000148106258118000109869005991941005202210BRYAN CARLOS LEANDRO BAPTISTA                                         2          1111   2            198203020303 32           206          000024           0000000000000000000206          0000000000000000000                                                                                                  *
30100471493000148106258118000109809402684241005202210ANDREA ALESSANDRA FABIANA CASTRO                                      3          592    2            195004060303 32           206          000024           0000000000000000000206          0000000000000000000                                                                                                  *
90999999999999999999999999999999999999999999999999999                                                                                                                                                                                                                                                                                                                  *