00                                                   1134350915000149MOBE CARGA E DESCARGA LTDA    JOAO LUIZ BEAL      RUA PEDRO                                         JARDIM ELDORADO     88133420PALHOCA             SC67984480740 RHWEB.TI@GMAIL.COM                                          202202                             134350915000149                 1*
10134350915000149000000000000000000000000000000000000CARGILL                                 RUA PEDRO                                         JARDIM ELDORADO     88133420PALHOCA             SC96981373514 N211040 P300    10210115 2100                                                                                                                             *
30134350915000149124926516000120146863893952012202102ENZO GUILHERME REZENDE                                                141        111111111111        100619467832 18714        1405             1403         16841        105                                   00000000000000000000000000000000000000000000000000000000000000000000000000000000000000000000000000*
90999999999999999999999999999999999999999999999999999                                                                                                                                                                                                                                                                                                                  *