00                                                   1134350915000149JOAO LUIZ BEAL DE LEAO LTDA   PEDRO ALVARES CABRAL                                                  JARDIM ELDORADO     88133420PALHOCA             SC4830860103  cobranca@ruanerebecalimpezaltda.com.br                      202207135         1                134350915000149                  *
101343509150001490000000000000000000000000000000000002H BEBIDAS EIRELI                       PEDRO ALVARES CABRAL                              JARDIM ELDORADO     88133420PALHOCA             SC47003305071 N4632001P0 1151540992100     000000000000000000000000000000000000000000000000000000000000               000000000000000000000000000000000000000000000     *
201343509150001491305746490001870000000000000000000002H BEBIDAS EIRELI                       PEDRO ALVARES CABRAL                              JARDIM ELDORADO     88133420PALHOCA             SC210000000000000000000000000000000000000000000000000000000000000000000000000000000000000000000000000000000000                                                          *
30134350915000149130574649000187638101297902402202210CRISTIAN DE LARA GLANER                                               9879                   000000001988111000000327129       211          000032645        0000000000000000000211          0000000000000000000                                                                                                  *
30134350915000149130574649000187124284149431104202290ADRIANO JOSE DA SILVA                                                 273        852    566          197210014141416357        1055         00001227         00000000000000000001055         0000000000000000000                                                                                                  *
30134350915000149130574649000187373314601300906202290HUGO RAFAEL MORAES                                                    9911       1239   295          19530608202C 22899        1477         00001717         00000000000000000001477         0000000000000000000                                                                                                  *
90999999999999999999999999999999999999999999999999999                                                                                                                                                                                                                                                                                                                  *